{
  "contractName": "OTPAuthentication",
  "abi": [
    {
      "anonymous": false,
      "inputs": [
        {
          "indexed": true,
          "internalType": "address",
          "name": "user",
          "type": "address"
        },
        {
          "indexed": false,
          "internalType": "uint256",
          "name": "otp",
          "type": "uint256"
        }
      ],
      "name": "OTPGenerated",
      "type": "event"
    },
    {
      "anonymous": false,
      "inputs": [
        {
          "indexed": true,
          "internalType": "address",
          "name": "user",
          "type": "address"
        },
        {
          "indexed": false,
          "internalType": "bool",
          "name": "isValid",
          "type": "bool"
        }
      ],
      "name": "OTPValidated",
      "type": "event"
    },
    {
      "inputs": [],
      "name": "currentOtp",
      "outputs": [
        {
          "internalType": "uint256",
          "name": "",
          "type": "uint256"
        }
      ],
      "stateMutability": "view",
      "type": "function",
      "constant": true
    },
    {
      "inputs": [],
      "name": "otpGenerated",
      "outputs": [
        {
          "internalType": "bool",
          "name": "",
          "type": "bool"
        }
      ],
      "stateMutability": "view",
      "type": "function",
      "constant": true
    },
    {
      "inputs": [],
      "name": "otpOwner",
      "outputs": [
        {
          "internalType": "address",
          "name": "",
          "type": "address"
        }
      ],
      "stateMutability": "view",
      "type": "function",
      "constant": true
    },
    {
      "inputs": [],
      "name": "generateOTP",
      "outputs": [
        {
          "internalType": "uint256",
          "name": "",
          "type": "uint256"
        }
      ],
      "stateMutability": "nonpayable",
      "type": "function"
    },
    {
      "inputs": [
        {
          "internalType": "uint256",
          "name": "userOtp",
          "type": "uint256"
        }
      ],
      "name": "validateOTP",
      "outputs": [],
      "stateMutability": "nonpayable",
      "type": "function"
    }
  ],
  "bytecode": "0x608060405234801561001057600080fd5b50610675806100206000396000f3fe608060405234801561001057600080fd5b50600436106100575760003560e01c806308e465d01461005c57806358677a591461007a57806394500d0614610098578063b7c12311146100b6578063dbf3410f146100d2575b600080fd5b6100646100f0565b6040516100719190610519565b60405180910390f35b610082610235565b60405161008f91906104be565b60405180910390f35b6100a0610248565b6040516100ad91906104a3565b60405180910390f35b6100d060048036038101906100cb919061034d565b61026e565b005b6100da610332565b6040516100e79190610519565b60405180910390f35b6000600160149054906101000a900460ff1615610142576040517f08c379a0000000000000000000000000000000000000000000000000000000008152600401610139906104f9565b60405180910390fd5b620f42404233604051602001610159929190610477565b6040516020818303038152906040528051906020012060001c61017c91906105bb565b60008190555033600160006101000a81548173ffffffffffffffffffffffffffffffffffffffff021916908373ffffffffffffffffffffffffffffffffffffffff16021790555060018060146101000a81548160ff0219169083151502179055503373ffffffffffffffffffffffffffffffffffffffff167f319edb03e3b686125d3ddef459974ff36e5f3d519b928f65c4764c7eab0f4fa06000546040516102259190610519565b60405180910390a2600054905090565b600160149054906101000a900460ff1681565b600160009054906101000a900473ffffffffffffffffffffffffffffffffffffffff1681565b600160149054906101000a900460ff166102bd576040517f08c379a00000000000000000000000000000000000000000000000000000000081526004016102b4906104d9565b60405180910390fd5b60008054821490503373ffffffffffffffffffffffffffffffffffffffff167f5f9ea078570609d9580d51e38ca59d61f2a3976531fa63ac393c69e6bc8527a38260405161030b91906104be565b60405180910390a26000600160146101000a81548160ff0219169083151502179055505050565b60005481565b60008135905061034781610628565b92915050565b60006020828403121561035f57600080fd5b600061036d84828501610338565b91505092915050565b61037f81610545565b82525050565b61039661039182610545565b61058d565b82525050565b6103a581610557565b82525050565b60006103b8601a83610534565b91507f4e6f204f545020686173206265656e2067656e6572617465642e0000000000006000830152602082019050919050565b60006103f8602f83610534565b91507f416e204f54502068617320616c7265616479206265656e2067656e657261746560008301527f6420616e64206e6f7420757365642e00000000000000000000000000000000006020830152604082019050919050565b61045a81610583565b82525050565b61047161046c82610583565b6105b1565b82525050565b60006104838285610460565b6020820191506104938284610385565b6014820191508190509392505050565b60006020820190506104b86000830184610376565b92915050565b60006020820190506104d3600083018461039c565b92915050565b600060208201905081810360008301526104f2816103ab565b9050919050565b60006020820190508181036000830152610512816103eb565b9050919050565b600060208201905061052e6000830184610451565b92915050565b600082825260208201905092915050565b600061055082610563565b9050919050565b60008115159050919050565b600073ffffffffffffffffffffffffffffffffffffffff82169050919050565b6000819050919050565b60006105988261059f565b9050919050565b60006105aa8261061b565b9050919050565b6000819050919050565b60006105c682610583565b91506105d183610583565b9250826105e1576105e06105ec565b5b828206905092915050565b7f4e487b7100000000000000000000000000000000000000000000000000000000600052601260045260246000fd5b60008160601b9050919050565b61063181610583565b811461063c57600080fd5b5056fea264697066735822122032fe1bf99ba62a22dcc152c57cf02df89db376399cdcc2075bccad0e099f41b364736f6c63430008000033",
  "immutableReferences": {},
  "source": "// SPDX-License-Identifier: MIT\r\npragma solidity ^0.8.0;\r\n\r\ncontract OTPAuthentication {\r\n    uint256 public currentOtp; // Ensure this is declared only once\r\n    address public otpOwner;\r\n    bool public otpGenerated;\r\n\r\n    event OTPGenerated(address indexed user, uint256 otp);\r\n    event OTPValidated(address indexed user, bool isValid);\r\n\r\n    function generateOTP() public returns (uint256) {\r\n        require(!otpGenerated, \"An OTP has already been generated and not used.\");\r\n        \r\n        // Generate a new OTP (for example, a random number)\r\n        currentOtp = uint256(keccak256(abi.encodePacked(block.timestamp, msg.sender))) % 1000000; // Random 6-digit OTP\r\n        otpOwner = msg.sender;\r\n        otpGenerated = true;\r\n\r\n        emit OTPGenerated(msg.sender, currentOtp);\r\n        return currentOtp;\r\n    }\r\n\r\n    function validateOTP(uint256 userOtp) public {\r\n        require(otpGenerated, \"No OTP has been generated.\");\r\n        bool isValid = (userOtp == currentOtp);\r\n        \r\n        emit OTPValidated(msg.sender, isValid);\r\n\r\n        // Resetting state after validation\r\n        otpGenerated = false; // Allow generating a new OTP\r\n    }\r\n}",
  "sourcePath": "C:\\Users\\mavee\\Downloads\\otp-authentication\\contracts\\OTPAuthentication.sol",
  "compiler": {
    "name": "solc",
    "version": "0.8.0+commit.c7dfd78e.Emscripten.clang"
  },
  "schemaVersion": "3.4.16",
  "updatedAt": "2024-10-16T10:50:55.838Z",
  "networkType": "ethereum",
  "devdoc": {
    "kind": "dev",
    "methods": {},
    "version": 1
  },
  "userdoc": {
    "kind": "user",
    "methods": {},
    "version": 1
  }
}