{
  "contractName": "OTPAuthentication",
  "abi": [
    {
      "anonymous": false,
      "inputs": [
        {
          "indexed": true,
          "internalType": "address",
          "name": "user",
          "type": "address"
        },
        {
          "indexed": false,
          "internalType": "string",
          "name": "otp",
          "type": "string"
        }
      ],
      "name": "OTPGenerated",
      "type": "event"
    },
    {
      "anonymous": false,
      "inputs": [
        {
          "indexed": true,
          "internalType": "address",
          "name": "user",
          "type": "address"
        },
        {
          "indexed": false,
          "internalType": "bool",
          "name": "isValid",
          "type": "bool"
        }
      ],
      "name": "OTPValidated",
      "type": "event"
    },
    {
      "inputs": [],
      "name": "currentOtp",
      "outputs": [
        {
          "internalType": "string",
          "name": "",
          "type": "string"
        }
      ],
      "stateMutability": "view",
      "type": "function",
      "constant": true
    },
    {
      "inputs": [],
      "name": "otpGenerated",
      "outputs": [
        {
          "internalType": "bool",
          "name": "",
          "type": "bool"
        }
      ],
      "stateMutability": "view",
      "type": "function",
      "constant": true
    },
    {
      "inputs": [],
      "name": "otpOwner",
      "outputs": [
        {
          "internalType": "address",
          "name": "",
          "type": "address"
        }
      ],
      "stateMutability": "view",
      "type": "function",
      "constant": true
    },
    {
      "inputs": [],
      "name": "generateOTP",
      "outputs": [
        {
          "internalType": "string",
          "name": "",
          "type": "string"
        }
      ],
      "stateMutability": "nonpayable",
      "type": "function"
    },
    {
      "inputs": [
        {
          "internalType": "string",
          "name": "userOtp",
          "type": "string"
        }
      ],
      "name": "validateOTP",
      "outputs": [],
      "stateMutability": "nonpayable",
      "type": "function"
    }
  ],
  "bytecode": "0x608060405234801561001057600080fd5b50611219806100206000396000f3fe608060405234801561001057600080fd5b50600436106100575760003560e01c806308e465d01461005c57806358677a591461007a5780638c4c37d81461009857806394500d06146100b4578063dbf3410f146100d2575b600080fd5b6100646100f0565b6040516100719190610e12565b60405180910390f35b610082610805565b60405161008f9190610df7565b60405180910390f35b6100b260048036038101906100ad9190610ae6565b610818565b005b6100bc610927565b6040516100c99190610ddc565b60405180910390f35b6100da61094d565b6040516100e79190610e12565b60405180910390f35b6060600160149054906101000a900460ff1615610142576040517f08c379a000000000000000000000000000000000000000000000000000000000815260040161013990610e76565b60405180910390fd5b60006040518060600160405280603481526020016111b060349139905060006040518060400160405280600a81526020017f3031323334353637383900000000000000000000000000000000000000000000815250905060006006905060008167ffffffffffffffff8111156101e1577f4e487b7100000000000000000000000000000000000000000000000000000000600052604160045260246000fd5b6040519080825280601f01601f1916602001820160405280156102135781602001600182028036833780820191505090505b5090506000423360405160200161022b929190610db0565b60405160208183030381529060405280519060200120905084855182600060208110610280577f4e487b7100000000000000000000000000000000000000000000000000000000600052603260045260246000fd5b1a60f81b60f81c60ff166102949190611073565b815181106102cb577f4e487b7100000000000000000000000000000000000000000000000000000000600052603260045260246000fd5b602001015160f81c60f81b82600081518110610310577f4e487b7100000000000000000000000000000000000000000000000000000000600052603260045260246000fd5b60200101907effffffffffffffffffffffffffffffffffffffffffffffffffffffffffffff1916908160001a9053508384518260016020811061037c577f4e487b7100000000000000000000000000000000000000000000000000000000600052603260045260246000fd5b1a60f81b60f81c60ff166103909190611073565b815181106103c7577f4e487b7100000000000000000000000000000000000000000000000000000000600052603260045260246000fd5b602001015160f81c60f81b8260018151811061040c577f4e487b7100000000000000000000000000000000000000000000000000000000600052603260045260246000fd5b60200101907effffffffffffffffffffffffffffffffffffffffffffffffffffffffffffff1916908160001a9053506000600290505b838110156106ae5760006002838360208110610487577f4e487b7100000000000000000000000000000000000000000000000000000000600052603260045260246000fd5b1a60f81b60f81c61049891906110a4565b60ff1614156105a0578586518383602081106104dd577f4e487b7100000000000000000000000000000000000000000000000000000000600052603260045260246000fd5b1a60f81b60f81c60ff166104f19190611073565b81518110610528577f4e487b7100000000000000000000000000000000000000000000000000000000600052603260045260246000fd5b602001015160f81c60f81b83828151811061056c577f4e487b7100000000000000000000000000000000000000000000000000000000600052603260045260246000fd5b60200101907effffffffffffffffffffffffffffffffffffffffffffffffffffffffffffff1916908160001a90535061069b565b8485518383602081106105dc577f4e487b7100000000000000000000000000000000000000000000000000000000600052603260045260246000fd5b1a60f81b60f81c60ff166105f09190611073565b81518110610627577f4e487b7100000000000000000000000000000000000000000000000000000000600052603260045260246000fd5b602001015160f81c60f81b83828151811061066b577f4e487b7100000000000000000000000000000000000000000000000000000000600052603260045260246000fd5b60200101907effffffffffffffffffffffffffffffffffffffffffffffffffffffffffffff1916908160001a9053505b80806106a690610ffc565b915050610442565b5081600090805190602001906106c59291906109db565b5033600160006101000a81548173ffffffffffffffffffffffffffffffffffffffff021916908373ffffffffffffffffffffffffffffffffffffffff16021790555060018060146101000a81548160ff0219169083151502179055503373ffffffffffffffffffffffffffffffffffffffff167f99a8b939e301c59170870a639c057cae1b60e8c098cf0b7fba35d4d46b48915360006040516107689190610e34565b60405180910390a26000805461077d90610fca565b80601f01602080910402602001604051908101604052809291908181526020018280546107a990610fca565b80156107f65780601f106107cb576101008083540402835291602001916107f6565b820191906000526020600020905b8154815290600101906020018083116107d957829003601f168201915b50505050509550505050505090565b600160149054906101000a900460ff1681565b600160149054906101000a900460ff16610867576040517f08c379a000000000000000000000000000000000000000000000000000000000815260040161085e90610e56565b60405180910390fd5b60008060405160200161087a9190610d99565b60405160208183030381529060405280519060200120826040516020016108a19190610d82565b604051602081830303815290604052805190602001201490503373ffffffffffffffffffffffffffffffffffffffff167f5f9ea078570609d9580d51e38ca59d61f2a3976531fa63ac393c69e6bc8527a3826040516109009190610df7565b60405180910390a26000600160146101000a81548160ff0219169083151502179055505050565b600160009054906101000a900473ffffffffffffffffffffffffffffffffffffffff1681565b6000805461095a90610fca565b80601f016020809104026020016040519081016040528092919081815260200182805461098690610fca565b80156109d35780601f106109a8576101008083540402835291602001916109d3565b820191906000526020600020905b8154815290600101906020018083116109b657829003601f168201915b505050505081565b8280546109e790610fca565b90600052602060002090601f016020900481019282610a095760008555610a50565b82601f10610a2257805160ff1916838001178555610a50565b82800160010185558215610a50579182015b82811115610a4f578251825591602001919060010190610a34565b5b509050610a5d9190610a61565b5090565b5b80821115610a7a576000816000905550600101610a62565b5090565b6000610a91610a8c84610ec7565b610e96565b905082815260208101848484011115610aa957600080fd5b610ab4848285610f88565b509392505050565b600082601f830112610acd57600080fd5b8135610add848260208601610a7e565b91505092915050565b600060208284031215610af857600080fd5b600082013567ffffffffffffffff811115610b1257600080fd5b610b1e84828501610abc565b91505092915050565b610b3081610f33565b82525050565b610b47610b4282610f33565b611045565b82525050565b610b5681610f45565b82525050565b6000610b6782610f0c565b610b718185610f17565b9350610b81818560208601610f97565b610b8a81611191565b840191505092915050565b6000610ba082610f0c565b610baa8185610f28565b9350610bba818560208601610f97565b80840191505092915050565b60008154610bd381610fca565b610bdd8186610f17565b94506001821660008114610bf85760018114610c0a57610c3d565b60ff1983168652602086019350610c3d565b610c1385610ef7565b60005b83811015610c3557815481890152600182019150602081019050610c16565b808801955050505b50505092915050565b60008154610c5381610fca565b610c5d8186610f28565b94506001821660008114610c785760018114610c8957610cbc565b60ff19831686528186019350610cbc565b610c9285610ef7565b60005b83811015610cb457815481890152600182019150602081019050610c95565b838801955050505b50505092915050565b6000610cd2601a83610f17565b91507f4e6f204f545020686173206265656e2067656e6572617465642e0000000000006000830152602082019050919050565b6000610d12602f83610f17565b91507f416e204f54502068617320616c7265616479206265656e2067656e657261746560008301527f6420616e64206e6f7420757365642e00000000000000000000000000000000006020830152604082019050919050565b610d7c610d7782610f71565b611069565b82525050565b6000610d8e8284610b95565b915081905092915050565b6000610da58284610c46565b915081905092915050565b6000610dbc8285610d6b565b602082019150610dcc8284610b36565b6014820191508190509392505050565b6000602082019050610df16000830184610b27565b92915050565b6000602082019050610e0c6000830184610b4d565b92915050565b60006020820190508181036000830152610e2c8184610b5c565b905092915050565b60006020820190508181036000830152610e4e8184610bc6565b905092915050565b60006020820190508181036000830152610e6f81610cc5565b9050919050565b60006020820190508181036000830152610e8f81610d05565b9050919050565b6000604051905081810181811067ffffffffffffffff82111715610ebd57610ebc611162565b5b8060405250919050565b600067ffffffffffffffff821115610ee257610ee1611162565b5b601f19601f8301169050602081019050919050565b60008190508160005260206000209050919050565b600081519050919050565b600082825260208201905092915050565b600081905092915050565b6000610f3e82610f51565b9050919050565b60008115159050919050565b600073ffffffffffffffffffffffffffffffffffffffff82169050919050565b6000819050919050565b600060ff82169050919050565b82818337600083830152505050565b60005b83811015610fb5578082015181840152602081019050610f9a565b83811115610fc4576000848401525b50505050565b60006002820490506001821680610fe257607f821691505b60208210811415610ff657610ff5611133565b5b50919050565b600061100782610f71565b91507fffffffffffffffffffffffffffffffffffffffffffffffffffffffffffffffff82141561103a576110396110d5565b5b600182019050919050565b600061105082611057565b9050919050565b6000611062826111a2565b9050919050565b6000819050919050565b600061107e82610f71565b915061108983610f71565b92508261109957611098611104565b5b828206905092915050565b60006110af82610f7b565b91506110ba83610f7b565b9250826110ca576110c9611104565b5b828206905092915050565b7f4e487b7100000000000000000000000000000000000000000000000000000000600052601160045260246000fd5b7f4e487b7100000000000000000000000000000000000000000000000000000000600052601260045260246000fd5b7f4e487b7100000000000000000000000000000000000000000000000000000000600052602260045260246000fd5b7f4e487b7100000000000000000000000000000000000000000000000000000000600052604160045260246000fd5b6000601f19601f8301169050919050565b60008160601b905091905056fe4142434445464748494a4b4c4d4e4f505152535455565758595a6162636465666768696a6b6c6d6e6f707172737475767778797aa2646970667358221220581e85b9cadc6da6aba941923f4db73807845475615b66f478f86b81ed2a606a64736f6c63430008000033",
  "immutableReferences": {},
  "source": "// SPDX-License-Identifier: MIT\npragma solidity ^0.8.0;\n\ncontract OTPAuthentication {\n    string public currentOtp; // Ensure this is declared only once\n    address public otpOwner;\n    bool public otpGenerated;\n\n    event OTPGenerated(address indexed user, string otp);\n    event OTPValidated(address indexed user, bool isValid);\n\n    function generateOTP() public returns (string memory) {\n        require(!otpGenerated, \"An OTP has already been generated and not used.\");\n\n        // Separate character sets for alphabets and numbers\n        string memory alphabets = \"ABCDEFGHIJKLMNOPQRSTUVWXYZabcdefghijklmnopqrstuvwxyz\";\n        string memory numbers = \"0123456789\";\n        uint256 length = 6; // Length of the OTP\n        bytes memory otpBytes = new bytes(length);\n\n        // Generate a random seed using block data and sender address\n        bytes32 randomSeed = keccak256(abi.encodePacked(block.timestamp, msg.sender));\n\n        // Ensure at least one character from each set\n        otpBytes[0] = bytes(alphabets)[uint8(randomSeed[0]) % bytes(alphabets).length];\n        otpBytes[1] = bytes(numbers)[uint8(randomSeed[1]) % bytes(numbers).length];\n\n        // Fill the remaining characters randomly from both sets\n        for (uint256 i = 2; i < length; i++) {\n            if (uint8(randomSeed[i]) % 2 == 0) {\n                otpBytes[i] = bytes(alphabets)[uint8(randomSeed[i]) % bytes(alphabets).length];\n            } else {\n                otpBytes[i] = bytes(numbers)[uint8(randomSeed[i]) % bytes(numbers).length];\n            }\n        }\n\n        currentOtp = string(otpBytes);\n        otpOwner = msg.sender;\n        otpGenerated = true;\n\n        emit OTPGenerated(msg.sender, currentOtp);\n        return currentOtp;\n    }\n\n    function validateOTP(string memory userOtp) public {\n        require(otpGenerated, \"No OTP has been generated.\");\n        bool isValid = (keccak256(abi.encodePacked(userOtp)) == keccak256(abi.encodePacked(currentOtp)));\n\n        emit OTPValidated(msg.sender, isValid);\n\n        // Resetting state after validation\n        otpGenerated = false; // Allow generating a new OTP\n    }\n}\n",
  "sourcePath": "C:\\Users\\Mavee\\Downloads\\otp_authentication_blockchain-main\\otp_authentication_blockchain-main\\contracts\\OTPAuthentication.sol",
  "compiler": {
    "name": "solc",
    "version": "0.8.0+commit.c7dfd78e.Emscripten.clang"
  },
  "schemaVersion": "3.4.16",
  "updatedAt": "2025-02-05T06:25:10.676Z",
  "networkType": "ethereum",
  "devdoc": {
    "kind": "dev",
    "methods": {},
    "version": 1
  },
  "userdoc": {
    "kind": "user",
    "methods": {},
    "version": 1
  }
}